{
  "contractName": "Counter",
  "abi": [
    {
      "constant": true,
      "inputs": [],
      "name": "counter",
      "outputs": [
        {
          "internalType": "uint8",
          "name": "",
          "type": "uint8"
        }
      ],
      "payable": false,
      "stateMutability": "view",
      "type": "function"
    },
    {
      "constant": false,
      "inputs": [],
      "name": "incrementByOne",
      "outputs": [],
      "payable": false,
      "stateMutability": "nonpayable",
      "type": "function"
    }
  ],
  "bytecode": "0x608060405260008060006101000a81548160ff021916908360ff16021790555034801561002b57600080fd5b5060db8061003a6000396000f3fe6080604052348015600f57600080fd5b506004361060325760003560e01c806301c791c814603757806361bc221a14603f575b600080fd5b603d6061565b005b60456094565b604051808260ff1660ff16815260200191505060405180910390f35b60008081819054906101000a900460ff168092919060010191906101000a81548160ff021916908360ff16021790555050565b6000809054906101000a900460ff168156fea265627a7a723158205bf0b2fa1bca856450b6e97eb4dfa0eb3e598b33d6715afd042a6c4a79dbc3e564736f6c63430005100032",
  "source": "// SPDX-License-Identifier: MIT\npragma solidity >=0.4.21;\n\ncontract Counter{\n    uint8 public counter = 0;\n\n    function incrementByOne() public {\n        counter++;\n    }\n}",
  "sourcePath": "/home/rishabh/Desktop/ClayStack/truffle_box/contracts/Counter.sol",
  "compiler": {
    "name": "solc",
    "version": "0.5.16+commit.9c3226ce.Emscripten.clang"
  },
  "schemaVersion": "3.4.0",
  "updatedAt": "2021-05-07T20:14:46.071Z",
  "networkType": "ethereum",
  "devdoc": {
    "methods": {}
  },
  "userdoc": {
    "methods": {}
  }
}